:1010000097210F009381011817B1CB00130181784C
:1010100017D50A001305054997D50A009385854819
:101020001386C18963FAC5008322050023A05500F9
:1010300011059105E3EAC5FE1385C18997B5AB009B
:10104000938545756377B500232005001105E36D91
:0E105000B5FEEF10C00DEFC0000E01A08280B3
:10106000B367B5008D8BB9EF9841B7867F7F9386C4
:10107000F6F7B377D700B697D98FD58F7D56639C97
:10108000C7042A867D5811069105232EE6FE984155
:10109000B377D700B697D98FD58FE38607FF83C77D
:1010A000050003C7150083C625002300F60099C775
:1010B000A300E60001C72301D60091E28280A301CC
:1010C00006008280AA8703C7050085078505A38FD0
:1010D000E7FE75FB82802A86D9B74111194506C6FD
:1010E000EF2050270545EFD04A23938741889C4342
:1010F0004111328806C6AA882E87C84736869707C8
:101100000F00938727F9630A0800C68697050F002A
:10111000938545F9EF004077C93797670E009387AD
:10112000A70D3E88DDB74111B286014606C6753F60
:10113000AA858146014601456F60400A797106D64D
:1011400022D426D24AD04ECE52CC56CA5AC85EC6F7
:1011500005CA368A95C63289AA8A2E8BBA8B8149EE
:10116000330439010580B3048A025685DA94A685D2
:10117000829B6344050211C593091400E3E229FF31
:101180008144B2502254268502599254F249624A4F
:10119000D24A424BB24B456182802289E3E229FD6B
:1011A000C5B7938741882E86AA85884309A0B38551
:1011B000C502411122C406C6EF10A0122A841DC127
:1011C0000326C5FF13074002719A71166367C704AF
:1011D000CD46AA8763EDC60023A0070023A207001F
:1011E00023A407002285B2402244410182802320AB
:1011F000050023220500ED4763F9C70223240500FB
:101200002326050093070501E318E6FC23280500C3
:1012100093078501232A0500C1B78145EF10F01A15
:101220002285B240224441018280930785006DB738
:101230009387418888438280411106C622C426C212
:101240004AC089C9AA842E8419C11C5DADCB8317FD
:10125000C40089EBB240224401494A8592440249C4
:1012600041018280A285268565285C542A8991C720
:101270004C4C26858297634905048357C40093F735
:101280000708A9EB0C5891C9930704046385F5007E
:101290002685EF007000232804026C4091C5268546
:1012A000EF00807F23220404512B23160400412BDE
:1012B000B24022444A8592440249410182809D2BDA
:1012C0008317C400C1DB79BF8357C4007D5993F7EE
:1012D0000708CDDB0C482685EF00007C65B79387B7
:1012E0004188AA85884389BF938741889C434111DF
:1012F00022C406C62A8499C3985F09CB0355C4004B
:10130000B240224415810589410182803E851D231A
:101310000355C400B24022441581058941018280F1
:101320008397C500011122CC1397070141834EC654
:1013300006CE26CA4AC8937687002E84AA89D5EAA3
:10134000056713070780D441D98F2396F500635DA5
:10135000D00E185459C7C207C18383A409009396BD
:10136000370123A009004C4C63C4060E8546014694
:101370004E850297FD576303F5108357C400185438
:101380004C4C918B99C754401C58158D99C35C5C8B
:101390001D8D2A8681464E850297FD57631CF50AEE
:1013A00003A709008317C4007DCBF5466305D7006A
:1013B000D9466310D70814487D771307F77FF98F54
:1013C0002316F4002322040014C00C5823A0990013
:1013D00089C9930704046384F5004E85752D23287D
:1013E00004020145F2406244D2444249B2490561D7
:1013F000828003A90501E30609FE84410D8B23A029
:101400002501B3842441814711E3DC491CC46346B0
:101410009000C1BF2A99E35690FC5C504C4CA686C4
:101420004A864E858297898CE346A0FE8357C40086
:101430007D5593E707042316F400F2406244D2443A
:101440004249B24905618280D85DE344E0F051BF72
:10145000284805BF8357C4007D771307F77FF98FAE
:101460001448C207C1872316F4002322040014C0C5
:1014700013973701E35B07F428C881BF83A70900EE
:10148000E38D07EE75476382E7025947638FE700F4
:101490008357C40093E707042316F400A1B77D77B0
:1014A0001307F77F1448F98F7DBF23A099000145EA
:1014B00015BF011122CC06CE2A8419C11C5D89CB2F
:1014C0008397C50081EFF240624401450561828047
:1014D0002EC68D26B2458397C500F5D72285624476
:1014E000F240056135BDAA8509C5938741888843C7
:1014F000C9B797D70A009387A7F2884397050000DA
:10150000938565FB6F00F03A854763DCC70A0111DC
:1015100022CC4AC84EC652C406CE26CA56C25AC0AB
:10152000AA8936842E8A328919C11C5DB1CB7D19F6
:10153000D28A2DA8A945032B040063F32701BE849A
:1015400026865A85EF10803CAA8726865685DA853E
:10155000330999405840B1E71C40058FA69ABE94C4
:1015600058C004C0EF10404B630009025C40CA84BD
:10157000F1F3A2854E85EF20602D09E55C405DBF4B
:10158000552C75B7638D4A0323800A005285F240BB
:101590006244D2444249B249224A924A024B05610E
:1015A00082808507B3846741058F58C01CC026869A
:1015B000EF108046A69A23800A005285C9BF0145D4
:1015C000F9B70145828093874188B2862E86AA8525
:1015D00088431DBF0145828097050000938505C69D
:1015E0006F00302D011106CE22CC26CA4AC84EC645
:1015F00052C456C25AC0404117070000130707FEE5
:1016000058DD9307C52E0D472322E52E2324F52E02
:101610002320052E91472A895CC421468145232237
:10162000040623200400232204002324040023288A
:101630000400232A0400232C04001305C405EF1022
:10164000C05883248900172B0000130B2B58972AAE
:101650000000938A6A5B172A0000130A2A60972900
:1016600000009389C963C1672320640323225403C4
:10167000232444032326340340CCA507DCC421469D
:10168000814523A2040623A0040023A2040023A46E
:10169000040023A8040023AA040023AC040013853B
:1016A000C405EF1080520324C900B707020023A02D
:1016B000640323A2540323A4440323A63403C4CC09
:1016C000C9075CC42322040623200400232204004B
:1016D0002324040023280400232A0400232C0400CC
:1016E0001305C40521468145EF10204EF24023200A
:1016F000640323225403232444032326340340CCCD
:1017000062448547232CF902D2444249B249224A15
:10171000924A024B0561828001458280411126C2B6
:10172000130680069384F5FFB384C4024AC02E8951
:1017300022C406C693854407EF00B03A2A8401CD3F
:101740003105232004002322240108C413868406C3
:101750008145EF1080472285B240224492440249DD
:1017600041018280011197D70A00938767CB4AC84D
:1017700003A907004EC606CE8327890322CC26CABA
:10178000AA89C1C31309092EFD54832749000324E4
:101790008900FD1763D8070085A0FD171304840690
:1017A000638C97040317C4006DFBC1778507232260
:1017B00004062320040023220400232404005CC424
:1017C00023280400232A0400232C040021468145F9
:1017D0001305C405EF10603F23280402232A0402E6
:1017E00023220404232404042285F2406244D244C8
:1017F0004249B249056182800324090011C422894B
:1018000069B74A85C533BDBF91454E85013F232049
:10181000A9002A846DF5B14723A0F900F1B797D745
:101820000A009387E7BF884397050000938505A1C9
:101830006F0030081C5D91C382806DB3828082800E
:101840008280828093874188884397050000938532
:10185000A5D86F00C07E9387418888439705000014
:101860009385C5EB6F00A07D39711303C10236D695
:101870009A8606CE3AD83EDA42DC46DE1AC6EF2019
:10188000F03BF24021618280397132D42E86AA85E4
:101890001385418808411303810236D69A8606CE05
:1018A0003AD83EDA42DC46DE1AC6EF203039F24042
:1018B000216182807971B2874ECE7000AE89BE857B
:1018C0004AD006D622D426D22A89EF50F01B3DC535
:1018D000AA844A85413D2A8435C132469306601B5D
:1018E000CE854A85EF10203963460504972700000E
:1018F0009387C72D1CD0972700009387E7305CD0D3
:1019000097270000938787351CD49727000093877B
:101910000739231694002317A40040CC5CD493F419
:10192000041095E42285B250225492540259F2498F
:101930004561828021372316040011370144228536
:10194000B250225492540259F24945618280A285D4
:101950004A858946014651262285B2502254925426
:101960000259F24945618280938741882E86AA8573
:10197000884389B739711303C10236D69A8606CED9
:101980003AD83EDA42DC46DE1AC6EF30F00CF240BE
:1019900021618280397132D42E86AA8513854188CF
:1019A00008411303810236D69A8606CE3AD83EDA2B
:1019B00042DC46DE1AC6EF30300AF24021618280F6
:1019C000011122CC26CA4AC84EC62E8406CE9719CB
:1019D0000F009389A9A42A89EF10A02983A6890062
:1019E00005679307F7FEC44233848740F198269435
:1019F00031807D143204634BE40081454A85EF1049
:101A0000107B83A78900A697630DF5004A85EF1028
:101A10006026F2406244D2444249B2490145056120
:101A20008280B30580404A85EF107078FD57630EC1
:101A3000F50297B7AB00938727D39C4303A7890090
:101A4000818C93E41400338487404A8544C397B75C
:101A5000AB0023AB87D0EF10E021F2406244D244C8
:101A60004249B24905450561828081454A85EF10AA
:101A7000107403A78900BD46B307E540E3D8F6F824
:101A800093868188944293E717005CC3158D97B7BE
:101A9000AB0023ABA7CC9DBFEDC5411122C426C22C
:101AA0002E84AA8406C6EF10C01C8325C4FF13072A
:101AB00084FF17150F001305659693F7E5FF3306AE
:101AC000F700544203288500F19A6307C81254C2F4
:101AD00085893308D600BDED032384FF83254800A4
:101AE00097180F00938808943307674003288700EE
:101AF0009A9785896305180F0323C700232668007A
:101B0000232403016386051493E6170054C31CC203
:101B10009306F01F63E1F6088D83938617008E0607
:101B20004C413695104193D627408547B397D7004F
:101B3000CD8F930685FF54C710C797160F0023A1BA
:101B4000F68E18C158C62244B240268592444101FF
:101B50006F1040128325480085898DE5B697971848
:101B60000F009388288C144613E81700B305F7007C
:101B70006388160F5046D0C614C6232207019CC1A5
:101B800041BF828093E61700232ED4FE1CC2930629
:101B9000F01FE3F3F6F893D697001146636BD6086F
:101BA00093D6670093859603138686038E05AA95C0
:101BB0009441E1156386D50CD042719A63F5C70054
:101BC0009446E39BD5FECC464CC714C7224498C527
:101BD000B24026859244D8C641016F10A00963998E
:101BE000050E0C465046B69793E61700D0C50CC6B6
:101BF00054C33E971CC381BF8589B69789E9832565
:101C000084FF0D8F54471047AE9754C690C69386F5
:101C1000C18813E61700944250C317160F00232300
:101C2000E680E3E2D7F2938701988C432685493B0F
:101C300019BF51466370D60213064005636DD60482
:101C400093D6C7009385F6061386E6068E0585B7FC
:101C5000B69711BF9385C6051386B6058E0581BF5D
:101C600097060F0023A6E67C97060F0023A0E67CCC
:101C70002326170123241701232207019CC1E1B564
:101C80004841854709863396C700498E97070F005C
:101C900023A8C77815BF13064015636AD60093D6EC
:101CA000F70093858607138676078E0509B7130616
:101CB0004055636AD60093D627019385D6071386CD
:101CC000C6078E05EDB59305803F1306E007C5B541
:101CD00093E6170054C31CC2BDB501A89387418881
:101CE000B2862E86AA85884309A0757122C526C3AF
:101CF0004AC1D2DC06C7CEDED6DADAD8DED6AA846E
:101D00002E84328A368919C11C5DA1C78357C4004D
:101D10001307801093F787106386E70483298402F2
:101D20006385092C8547630DF90C89476301F90424
:101D3000630F0902D9479CC0FD5ABA402A44568510
:101D40009A440A49F659665AD65A465BB65B4961C7
:101D50008280CD348357C4001307801093F7871017
:101D6000E39EE7FAA2852685EFF0AFF445BF184859
:101D7000814B814A79CB8316C40085679387A781FD
:101D8000139706014183F98F8DE313770740631A98
:101D9000070E97270000938767EC638CF90A856725
:101DA00093870780DD8E2316D400A2852685EFF069
:101DB0004FF0AA8A51F14C4CCA86528626858299E8
:101DC000FD57E30BF5F60C5889C9930704046384A7
:101DD000F5002685D131232804028357C400144816
:101DE0007D771307F77DF98F14C023220400231693
:101DF000F400214681451305C405EF00105D35BF91
:101E0000A2852685EFF0EFEA8357C40013973701C8
:101E1000634F07084C4C8546014626858299FD573D
:101E2000AA8AE30BF5F08357C400184893F64700DD
:101E3000C9C65C401458B38AFA4081C6545CB38A60
:101E4000DA40CA8B569A01491DF7A2852685E926F4
:101E50001DB78315E400E3C405F4300026854D2248
:101E600063130514B246BD672167F58F8316C4005E
:101E7000E397E7F293E60640930700407CC42316FD
:101E8000D400528B6313090E63900B048357C40074
:101E9000139737016350071028485C400C583E8761
:101EA000B30AF540E5C1545CB38ADA4015A093F655
:101EB0004700832A04051848ADFEA18BD9D31C40E6
:101EC000C9D3998FBE9AB5BF0C58C5CD5C40545C40
:101ED000185C1048BE9AB307C740B38AFA40B69759
:101EE00063465B013387FA006362EB0C832AC40408
:101EF0004C4C8146B30A5041B3FA6A015686268596
:101F00008299FD57E303F5EA1C480C58232204008C
:101F10001CC089C9930704046384F5002685AD3E7F
:101F2000232804028357C400B30A5B4193F7F7FDEB
:101F30002316F40063830A02A2852685EF10101190
:101F4000E31505E65C40E3E257E7032B0400B387A3
:101F500057415CC0DA9A232054012146814513057C
:101F6000C405EF009046814AC9BB8315E4003000E8
:101F700026857920E31B05E2624B529BE3960BF426
:101F800031B758401C4010488145918FB38AFA40C0
:101F9000BA97B9B74C4C8546014626858299FD57BC
:101FA000E31DF5EE19B58316C400D5BBB30A5B413A
:101FB0005696B38A574110C02322540189C993070A
:101FC00004046384F5002685C13C2328040283575A
:101FD000C4002146814593F7F7FD2316F40013054D
:101FE000C405EF00903E814A89BBF5479CC0FD5A6D
:101FF000A9B393874188B2862E86AA858843F5B116
:10200000AE87411122C4B2852A843E8506C697A7B1
:10201000AB0023AF0776EFC00A26FD576306F50035
:10202000B24022444101828097A7AB009387477654
:102030009C43FDD71CC0B240224441018280011163
:1020400056C206CE22CC26CA4AC84EC652C45AC070
:10205000930A052E638D0A042E8B014A85497D590A
:1020600083A44A0003A48A00FD1463C304028357B7
:10207000C400FD1463FAF9008317E4002285638528
:102080002701029B336AAA0013048406E39124FF0C
:1020900083AA0A00E3960AFCF24062445285D244C5
:1020A0004249B249224A924A024B05618280014A62
:1020B000E5B7797156CA06D622D426D24AD04ECE7A
:1020C00052CC5AC85EC6930A052E63800A06AE8BB0
:1020D0002A8B014A85497D5983A44A0003A48A00BA
:1020E000FD1463C404028357C400FD1463FBF900AC
:1020F0008317E400A2855A8563852701829B336A92
:10210000AA0013048406E39024FF83AA0A00E3953F
:102110000AFCB2502254528592540259F249624A42
:10212000D24A424BB24B45618280014ADDB7411130
:1021300022C44AC017C40A001304843217C90A0013
:10214000130909323309894006C626C213592940AA
:102150006309090081441C40850411048297E31C33
:1021600099FE17C40A001304A42F17C90A00130903
:1021700029333309894013592940630909008144EF
:102180001C40850411048297E31C99FEB24022444E
:1021900092440249410182805971A2D42E848395D0
:1021A000E500A6D2CAD086D6B284368963CB0502B2
:1021B0003000B935634705023247BD67B650F98F25
:1021C0007977BA9793B7170026542320F90093071D
:1021D00000409CC00565965406591305058065614D
:1021E00082808357C4002320090093F7070899CB06
:1021F000B6502654930700049CC0065996540145D6
:1022000065618280B6502654930700409CC00659F1
:10221000965401456561828003D7C500011122CC27
:1022200006CE26CA4AC8098B2E8409CF13873504E7
:1022300098C198C90547D8C9F2406244D24442497E
:102240000561828074003000AA84B937A2452A89CA
:10225000268541288317C40015C997F6FFFF93868A
:10226000E637D4DCA246324793E707082316F4008A
:1022700008C008C854C815EBB3E727012316F400BB
:10228000F2406244D24442490561828013F707203C
:1022900045F7F19B93E72700130734042316F40056
:1022A000854718C018C85CC841BF8315E40026855F
:1022B000EF50804C01E58317C4007DBF8357C400F5
:1022C000F19B93E71700C207C1877DB793874188C9
:1022D000AA85884339A093874188AA8588436FF0EF
:1022E000AFFB797126D24AD006D622D44ECE52CC3C
:1022F00056CA5AC85EC662C466C29384B500D9473E
:102300002A8963E59704C14763E5B71AEF007016A1
:10231000C144E147094697090F0093892910CE97D8
:10232000C043138787FF630EE41A5C405444104493
:10233000F19BA297D84354C690C6136717004A85ED
:10234000D8C3EF0030131305840085AAE19863C257
:10235000041663E0B416EF00D0119307701F63F703
:10236000973893D79400638707161147636BF7324A
:1023700093D764001386970313858703931636005B
:1023800097090F0093898909CE96C042E1166385AB
:1023900086025C40BD45F19B3387974063CDE500E5
:1023A000635D072A4044638986005C40F19B338764
:1023B0009740E3D7E5FE2A8603A4090117080F001A
:1023C00013084806630B04134C403D47F199B3874B
:1023D0009540634CF73217070F00232B07051707AB
:1023E0000F002325070563D807309307F01F63E923
:1023F000B7268D81938715008E0703A54900CE97D8
:102400009443898505473317B700498F938587FF24
:102410004CC414C497050F0023A4E50080C3C0C6B4
:10242000935726408546B396F6006361D70EB3F7FF
:10243000E60081EF8606719AB3F7E600110691E790
:102440008606B3F7E6001106E5DF3D459318360032
:10245000CE98C6853283C045639885009DA4635994
:1024600007264044638F85245C40F19B3387974067
:10247000E357E5FE5444104493E514004CC054C6A1
:1024800090C6A29497060F0023A496FA97060F0011
:1024900023AE96F89366170023A6040123A4040133
:1024A000D4C0A2974A8598C3EF00C07C130584006E
:1024B00029A0B1472320F9000145B250225492547B
:1024C0000259F249624AD24A424BB24B224C924CD8
:1024D0004561828093060020130600041305F00373
:1024E00045B5C0470906E39287E403A4090117082C
:1024F0000F00130828F3E31904ED03A749009357CD
:1025000026408546B396F600E373D7F203A489000C
:10251000832A440093FBCAFF63E79B00B3879B4079
:102520003D47634CF71093870198138C818883AAE9
:10253000070003270C00FD57330A7401A69A6303B2
:10254000F7288567BD07BE9AFD77B3FAFA00D685EE
:102550004A85EF10C045FD572A8B630CF51E636852
:10256000451F97ACAB00938C2C2083A70C00D6970B
:1025700017A7AB00232AF71E3E87630EAA2C8326DB
:102580000C00FD576385F62EB3074B41BA9717A78A
:10259000AB00232BF71C137C7B0063040C24330B50
:1025A0008B418567210B138AF7FFDA9AA10733F76E
:1025B0004A01B3878741998F33FA4701D2854A850B
:1025C000EF10E03EFD576306F52E33056541B30A73
:1025D000450183A70C0017070F00232567E593EA41
:1025E0001A00D29717A7AB002320F71823225B010C
:1025F000630234293D4663717629544013874BFFAB
:10260000619B858AD98E54C09545B306E400CCC23F
:102610008CC66366E62A832A4B005A841387819707
:1026200018436374F70023ACF1961387C1971843DE
:102630006375F71223AEF1960DA213E7140058C08C
:10264000A29417070F00232F97DC93E717004A8502
:10265000DCC00D25130584008DB554441044D1B958
:1026600093D795001147637CF70C5147636FF718B8
:102670009386C7051387B7058E06CE969C42E11652
:102680006384F614D843719B63F5E5009C47E39B94
:10269000F6FED44703A7490054C41CC480C6C0C773
:1026A00041B351476378F70C13074005636BF71686
:1026B00093D7C4001386F7061385E70693163600F2
:1026C000C1B1050393773300A105E39607D87DA830
:1026D000A297D8435444104413671700D8C354C674
:1026E0004A8590C6412B13058400C1BB13D6340024
:1026F000938784000DB1A295DC414A8593E71700CA
:10270000DCC18D2B130584004DBB13E7140058C0AA
:10271000A29417070F00232D97D017070F00232728
:1027200097D013E7170023A6040123A40401D8C0FF
:10273000A2954A859CC13D2B13058400BDBB93D750
:10274000650093869703138787038E063DB763075B
:10275000340F03A48900832A440093FACAFFB38785
:102760009A4063E59A003D47E349F7EC4A8519230F
:102770000145A1B31386C7051385B7059316360027
:1027800001B183A788007D16639F171793773600E2
:10279000E118E5FB03A7490093C7F6FFF98F170778
:1027A0000F00232FF7C68606E3E2D7D6E38006D6CE
:1027B00033F7F60011E7860633F7F600110365DFFD
:1027C0001A8669B1C10A61B303A549009355274030
:1027D00005473317B700498F97050F0023A2E5C4BB
:1027E00065BD85671387F7FF330A5B01337AEA001B
:1027F000B387474133FAE700D2854A85EF10201BA3
:10280000FD57E314F5DC014AE9B31307400563699A
:10281000F70693D7C5009386F7061387E7068E065B
:10282000A9BD130740156369F70693D7F400138613
:102830008707138577079316360099B697ACAB00D8
:10284000938C8CF283A70C003387FA0097A7AB0018
:1028500023ACE7F02DB393164A01E39206D203A40A
:102860008900DE9A93EA1A002322540145BB23A46F
:10287000618915B35A845DB385472322FB00FDB5FA
:10288000130740156369F70493D7F500938687070C
:10289000138777078E06D5B3130740556369F7048E
:1028A00093D724011386D7071385C70793163600DD
:1028B000C1BC611CE29AB38A6A41014A19BB930503
:1028C00084004A85EFF04F9D03A4890083A70C0084
:1028D000832A4400A1B3130740556361F70293D7DD
:1028E00025019386D7071387C7078E0679B393060A
:1028F000803F1306F0071305E00759B49306803FA5
:102900001307E0079DBB83A7490071BD937735008E
:1029100013F8F50FD1CF9307F6FF39C2034705002F
:1029200063010705FD5601A8FD17638BD702034716
:1029300005006308070305051377350075F70D4794
:102940006362F70291CF03470500630C0701AA9762
:1029500029A003470500630607010505E39BA7FEC1
:10296000014582804167939885007D17B3F8E800A0
:1029700093F5F50FB3E5B80093980501B3E8B800F7
:1029800037868080B705FFFE9385F5EF13060608AE
:102990000D43184133C7E800B306B7001347F7FFEC
:1029A000758F718F4DF3F1171105E364F3FE59BF75
:1029B000B28771B78D4763F0C702B367B5008D8BDF
:1029C0008D46A9E718419C416312F7047116110561
:1029D0009105E3E9C6FE9307F6FF1DC60347050010
:1029E00083C605006317D7021387170093071500E6
:1029F0003A9501A803C7070083C605008507631A37
:102A0000D7008505E398A7FE014582809307F6FF6E
:102A1000F1B73305D7408280B3C7A5008D8BB308CB
:102A2000C500A1E78D4763F2C704937735002A8775
:102A3000A9EB13F6C8FF930706FE6367F7066373F7
:102A4000C702AE86BA8703A806009107910623AE97
:102A500007FFE3EAC7FE9307F6FF998FF19B910703
:102A60003E97BE956366170182802A87E37E15FF35
:102A700083C7050005078505A30FF7FEE36A17FF67
:102A8000828083C60500050793773700A30FD7FE22
:102A90008505C5D383C60500050793773700A30FC7
:102AA000D7FE8505F9FF71B7944183A2450083AF36
:102AB000850003AFC50083AE050103AE450103A346
:102AC000850103A8C5019385450214C383A6C5FFEC
:102AD000232257002324F7012326E7012328D701C7
:102AE000232AC701232C6700232E0701130747025F
:102AF000232ED7FEE36AF7FA99B763F2A502B387EC
:102B0000C500637EF5003307C50045CAFD1783C6BF
:102B100007007D172300D700E39AF5FE8280BD47AA
:102B200063E1C702AA879306F6FF49CE8506BE96E3
:102B3000850503C7F5FF8507A38FE7FEE39AD7FE58
:102B40008280B3E7A5008D8BB5EB930806FF93F861
:102B500008FFC108330815012E87AA871443C1074F
:102B6000410723A8D7FE832647FF23AAD7FE832643
:102B700087FF23ACD7FE8326C7FF23AED7FEE31F14
:102B8000F8FC1377C600C6951378F6000DCF2E8794
:102B9000BE880D4E11070323C7FF9108B306E84016
:102BA00023AE68FEAE96E367DEFE1307C8FF719B97
:102BB00011070D8ABA97BA95BDB782809306F6FFC2
:102BC000AA87ADB782804286B9BF3D432A87637327
:102BD000C3029377F700BDEFADE5937606FF3D8A1C
:102BE000BA960CC34CC30CC74CC74107E36BD7FE66
:102BF00011E28280B306C3408A06970200009696CF
:102C00006780A6002307B700A306B7002306B70016
:102C1000A305B7002305B700A304B7002304B7003A
:102C2000A303B7002303B700A302B7002302B70032
:102C3000A301B7002301B700A300B7002300B7002A
:102C4000828093F5F50F93968500D58D93960501B7
:102C5000D58D61B7939627009702000096968682DD
:102C6000E78086FA9680C1171D8F3E96E374C3F8FD
:102C7000A5B782808280AE87411122C4B2852A84A2
:102C800036863E8506C697A7AB0023A307B0EFB0F4
:102C90008A63FD576306F500B240224441018280F9
:102CA00097A7AB009387C7AE9C43FDD71CC0B2402B
:102CB000224441018280397132D436D63EDA3AD884
:102CC00042DC46DE2E860C453C10BE8606CE3EC655
:102CD000EF208058F24021618280138341880323D2
:102CE0000300397132D436D63EDA2ED23AD842DCDD
:102CF00046DE832583005C102A86BE861A8506CEB2
:102D00003EC6EF206055F240216182803571B36785
:102D1000C5004EC752C556C3E6DA06CF22CD26CB34
:102D20004AC95AC1DEDEE2DCEAD8EED68D8BAA892A
:102D3000B28C368A894A89E7930AC6FFB33A5001B2
:102D400093D72C003EC693971C0002CE33049041CB
:102D5000054D3EC433879503B38799013EC23ECAF1
:102D60009946B387E9003EC863F5B61493D71500BA
:102D7000B3879703330797419D463389E900B38DA5
:102D8000F9006382D502130780024A8C4E8B63627E
:102D9000B742EE855A85029AE2856345053C6E8509
:102DA000029A635CA01863930A1A83A60D0003A716
:102DB000090023A0D90023A0ED00D247636DF91AC2
:102DC0003E8B338C9701CA8D3ECC814BCE855A8584
:102DD000029ADA846358A00263E96D05CE856E8598
:102DE000029A6348052409ED63900A2283260900AC
:102DF00003A70D0023A0DD002320E9002299854BC5
:102E0000A29DD9BF11ED639F0A2CE24703260B0058
:102E1000984390C3B38697012320EB0036CC854BB3
:102E2000E284669B669CE3F39DFA63860B14E2479B
:102E30003388F440338637416353C8004286C24723
:102E4000B3862741B3859641B307B94163F3B70011
:102E5000BE85631E062A639B05324247C284330542
:102E6000F7406377F8004E87BE84AA89C2873A8507
:102E700063F5FC26B3D59703F2471D476360F7302F
:102E80003E8705073ACE94108E07B69723A037FDEC
:102E9000AA899946B3D494033387950323A297FC58
:102EA000B38799013EC23ECAB387E9003EC8E3EF4B
:102EB000B6EA12476376F706924763FDF904BE84CB
:102EC00011A8032709009C4098C02320F900CA8458
:102ED00063F2290533898400A6854A85029A635BDB
:102EE000A002E3800AFE2247CA873306E90063890D
:102EF000AA1D83C6070003C7040085048507A38FA6
:102F0000D4FEA38FE7FE33079640E344E0FECA8475
:102F1000E3E229FD92474247E6973EC2E3EEE7F837
:102F2000F247E1C7F2479810FD173ECE8E07BA97D9
:102F300083A907FC83A547FC31BDE2855A85029A27
:102F4000DA8DE34205E6E28DE3810AE64E87638B84
:102F5000AA2F03C60D0083460700D2470507850D3B
:102F6000A30FC7FEA38FDDFEB386E740E343D0FE89
:102F7000D247E377F9E4C2475247E373F7FA92473F
:102F800063FDF904BE8411A8032709009C4098C082
:102F90002320F900CA8463F2290533898400A685B9
:102FA0004A85029A635BA002E3800AFE2247CA8731
:102FB0003306E9006389AA0F83C6070003C704002C
:102FC00085048507A38FD4FEA38FE7FE33079640C1
:102FD000E344E0FECA84E3E229FD92474247E697D4
:102FE0003EC2E3EEE7F8F24795FFFA406A44DA445E
:102FF0004A49BA492A4A9A4A0A4BF65B665CD65C49
:10300000465DB65D0D618280CA866E8733859D01FF
:10301000638FAA0383C506000346070005078506DC
:10302000A30FB7FEA38FC6FE3306E540E344C0FE00
:10303000F1B3639B0A0283A60D0003270B00232034
:10304000DB0023A0ED00E284A29D854BD9BB324674
:1030500088420C4311079106232EA7FE23AEB6FE2D
:103060007D16E347C0FE59BB6E876381AA03034602
:10307000070083C6040085040507A38FC4FEA30FC1
:10308000D7FEB3069C40E344D0FE75BFB2460C4366
:1030900090409104110723AEB4FE232EC7FEFD1607
:1030A000E347D0FE4DB732479043944091049107D7
:1030B00023AEC4FE23AED7FE7D17E347E0FED9BDA5
:1030C0003247904394409104910723AEC4FE23AE4F
:1030D000D7FE7D17E347E0FEDDBBE3F39CE4B3D509
:1030E00094038DB9E2473E87B3869701638CAA1398
:1030F00083C504000346070005078504A30FB7FE38
:10310000A38FC4FE3386E640E344C0FE01BB0945FD
:103110003387C440CE86B388C900639FAA14034591
:10312000070003C6060085060507A38FA6FEA30FAA
:10313000C7FE3386D840E344C0FEE38005D2424751
:103140000D8FB386B4000345070003C60400850451
:103150000507A38FA4FEA30FC7FE33869640E34462
:10316000C0FEE5B96E85029AE34F05C2E2855A8535
:10317000029AE28DE34905C2DA8D35B1D2866686C0
:103180007136E3F19CDAB3D59403E9B64247894638
:103190000D8FE388DAFA93D625000C439040910412
:1031A000110723AEB4FE232EC7FEFD16E347D0FE63
:1031B0006DB18D81338C95034E85338B8901DA8512
:1031C00093171C003ECCB3048B01029AA685634979
:1031D00005085A85029A6353A010B3848D41EE8589
:1031E0002685B38B8D01029ADE856345050C6E85BD
:1031F000029A635DA00C93171C00B30BF9405E9C10
:10320000E2855E85029ACA85634A05086285029A4C
:10321000E341A0B8CA855E85029A5E8CE34B05B691
:103220004A8C85BEB2468C40104311079104232E70
:10323000B7FE23AEC4FEFD16E347D0FEE247B386D9
:103240009701E9BEB24683A50D0010431107910D09
:10325000232EB7FE23AECDFEFD16E346D0FEB1BE53
:103260005A85029AE34B05F6A6854E85029A268B6F
:10327000E34505F64E8B95B70982832807008842FF
:103280009106110723AE16FF232EA7FE7D16E346F7
:10329000C0FEE38405BC42470D8FF5BD6285029AEE
:1032A000E34905AECA855E85029A4A8CE34305AEC2
:1032B0005E8CC5B46E85029AE34F05F2DE852685E5
:1032C000029ADE8DE34905F2A68D35B7DE852685A7
:1032D000029AA68DE34105F2DE8D31BFA6854E85AB
:1032E000029A4E8BE34B05EE268BC5BD9387418832
:1032F0002E86AA85884309A079714ECE06D622D49F
:1033000026D24AD052CC56CA5AC85EC662C4B289C6
:103310006384051A2E8BAA8AEFF0BF951384B90037
:10332000D94763F1870C619822876341040C636F6E
:10333000340B8327CBFF13098BFF93F4C7FF330AAA
:10334000990063DAE41297F60E009386260D9046F4
:1033500083264A006303461B13F6E6FF529650424B
:10336000058A63100614F19A3386D400635FE6265B
:10337000858B8DE3032C8BFF330C894183274C0015
:10338000F19BBE96B38B960063D3EB08B38BF4002E
:1033900063DEEB26CE855685EFE0BFF4AA891DCD0E
:1033A0008327CBFF130785FFF99BCA976389E7241F
:1033B0001386C4FF9307400263E9C72A4D4783265B
:1033C0000B006360C71EAA875A8794C35443D4C3B3
:1033D000184798C7DA855685EFE00FEC5685EFF071
:1033E0007F8909A841444147E37534F5B14723A0DB
:1033F000FA008149B25022544E8592540259F24942
:10340000624AD24A424BB24B224C456182808327AA
:10341000CA0003278A001386C4FF930640025CC7D4
:1034200098C703278C008327CC0093098C00330AAC
:103430007C015CC798C763EEC622CD4603270B000C
:10344000CE8763F0C6022324EC0003274B00ED4730
:103450002326EC0003278B0063E1C72893070C01A8
:10346000210B98C303274B00DE846289D8C303274E
:103470008B004E8B98C703264900B38784403D4795
:10348000058A6369F704458E2322C90083274A0011
:1034900093E717002322FA005685EFF0AFFDDA8993
:1034A00091BF858BE39807EE032C8BFF330C89418A
:1034B00083274C00F19BD9BD2254B250925402593B
:1034C000F249624AD24A424BB24B224CB285456124
:1034D0006FE03FE1418E2322C900B305890093E7E5
:1034E0001700DCC183274A00A105568593E7170022
:1034F0002322FA00EFE04FDA45B7F19A3386D40081
:1035000093050401635DB60A858BE39507E8032CF8
:103510008BFF330C894183274C00F19BBE96338A85
:103520009600E345BAE68327CC0003278C00138678
:10353000C4FF930640025CC798C793098C0063EEF2
:10354000C61ACD4503270B00CE8763F0C50223249E
:10355000EC0003274B00ED472326EC0063EEC71C6D
:1035600003278B0093070C01210B98C303274B0003
:10357000D8C303278B0098C733078C00B3078A4052
:1035800097F60E0023A0E6EA93E717005CC38327B3
:103590004C005685858B5D8C23228C00EFF08FEDDF
:1035A00091BD14C183264B006D4754C1636BC70C9A
:1035B00013078B009307850083268B0039B522996A
:1035C000B307864017F70E00232E27E593E7170071
:1035D0002322F9008327CBFF5685DA89858B5D8C02
:1035E000232E8BFEEFF00FE931B58327CA000327A6
:1035F0008A00B284330AC9005CC798C7ADBD83276F
:10360000C5FFF19BBE94330A9900B5B50327CC00E2
:1036100083268C001386C4FF93054002D8C614C7C6
:1036200093098C00330A7C0163E5C5044D4583266C
:103630000B004E876370C5022324DC0003274B0078
:10364000ED472326EC0063EAC70683268B001307A9
:103650000C01210B14C383264B00DE84628954C302
:1036600083278B004E8B1CC739B5DA85EFF0EFC886
:1036700095B3DA854E85EFF04FC84E8BDE846289B4
:10368000DDBB03278B0018C50327CB0058C5630992
:10369000F60013070B019307050183260B0135B3D1
:1036A00083260B0113078B019307850114C9832619
:1036B0004B0154C983268B0109BB83278B00232828
:1036C000FC008327CB00232AFC00630DB60283266F
:1036D0000B0113078C01410BB5BF2328EC00032716
:1036E000CB0093074002232AEC0003270B01630958
:1036F000F60293078C01410BADB3DA854E85EFF0EE
:10370000CFBF9DBD83270B0113070C02610B232C38
:10371000FC008327CBFF232EFC0083260B001DBF5C
:10372000232CEC0003274B0193070C02610B232E83
:10373000EC0003270B0035B383278B002328FC0004
:103740008327CB00232AFC0003270B016306D60046
:1037500093078C01410B11BD232CEC0003274B0177
:1037600093070C02610B232EEC0003270B00F5BB23
:10377000411122C42E848C4126C206C6AA8491C15E
:10378000C53FA2852244B2402685924441016FE0A4
:10379000AFB0938741889C43638FA7087845011198
:1037A00026CA06CE22CC4AC84EC6AA8415C70149ED
:1037B00093090008B30727018C4381C980412685FE
:1037C000EFE08FADA2857DF8F8441109E31439FFCD
:1037D000BA852685EFE04FACAC4081C52685EFE089
:1037E000AFAB83A5841481CD1389C41463892501EB
:1037F00080412685EFE04FAAA285E31B89FEEC48B5
:1038000081C52685EFE04FA99C5C99CFDC5C2685BD
:10381000829783A5042E89C96244F2404249B24985
:103820002685D2440561A9B7F2406244D244424998
:10383000B2490561828082808357C5002547A58BE8
:103840006384E700014582806FD0FFC9011122CC5B
:1038500026CA06CE4AC84EC6AA842E8419C11C5D4B
:10386000DDCF0317C40093170701C1839396270187
:1038700063CE06007C508966558FF976FD16F58F6C
:103880007CD0931707012316E400C1832322040090
:1038900093F60702639A060E93F64700A9EA93F699
:1038A0000701638E060EA18BC5EB13674700231635
:1038B000E4001C48DDCF8319C40013990901135992
:1038C000090193773900B9EF10481C5054484C4C0B
:1038D00010C026858297AA8748C001456358F00A20
:1038E000F2406244D2444249B249056182800C5898
:1038F000E9D1930704046385F5002685EFE0CF99AD
:103900005C5C232804025CC0CDD71C5CF240D2442E
:103910001CC062444249B249014505618280EFD032
:103920007FF181B797B70A00938787AF88438547B0
:103930002316F40097050000938545F0EFE02FF083
:103940001379990023163401A547E31FF9F6A285E0
:103950002685EFD0FF9C8DBFA2852685EFD07FB551
:1039600005E50317C40023240400232C04005D9BF9
:103970002DBFA2852685EFE03F8A35BF1367070478
:10398000232204002316E4007D5599BF0317C400C9
:10399000F5F7136707022316E4007D5591B7A54795
:1039A0009CC0136707042316E4007D5515BF411121
:1039B00022C42A842E859797AB0023AB07DC06C66A
:1039C000EFA07A12FD576306F500B2402244410190
:1039D00082809797AB009387A7DB9C43FDD71CC0E1
:1039E000B24022444101828041119305000822C463
:1039F00006C62A84EFE0FF8E232EA42C09CD930760
:103A00000508232005001105E31DF5FE0145B24020
:103A10002244410182807D55DDBF8327C52D99C396
:103A200001458280D1B7011122CC06CE7D472A8480
:103A3000636EB7008327C52D95C38A05BE959C414B
:103A400090C1F24062443E8505618280F24062444A
:103A5000594718C1FD573E850561828032C62EC484
:103A60006137FD5779FD8327C42D3246A245F1B752
:103A7000FD4763E8B7068327C52D411122C426C23E
:103A800006C6AA842E8495C713972500BA97984333
:103A90000DC385466301D704FD566306D7022E8504
:103AA00023A007000297B2402244924401454101FD
:103AB00082802685012A22862244B240AA85268554
:103AC00092444101C9A0B2402244D9471CC192444A
:103AD000054541018280B2402244924401454101A2
:103AE0008280D9471CC17D558280FD4763E2B706BD
:103AF0008327C52D011122CC06CE2A8495CB13979E
:103B00002500BA97984305C3FD56630FD702854633
:103B10006307D7022E8523A0070002970145F240D4
:103B2000624405618280F2406244054505618280FD
:103B30002EC65D3D01ED8327C42DB245C9B7F240C5
:103B400062440D45056182800945D1BF7D55C1BFE5
:103B50007D55828093874188AA85884311BF9387CA
:103B600041882E86AA8588437DBD938741888843F6
:103B70008327C52D99C301458280BDB593874188B0
:103B8000AA8588439DB7AE87411122C4B2852A8495
:103B90003E8506C69797AB0023AC07BEEFA0AA7080
:103BA000FD576306F500B240224441018280979799
:103BB000AB009387E7BD9C43FDD71CC0B2402244B5
:103BC000410182806FA02A6C411122C42E8483950A
:103BD000E50006C6EF60A075634905003C48B240A9
:103BE000AA973CC82244410182808357C4007D7754
:103BF0007D17F98F2316F400B240224441018280E0
:103C0000014582808397C500011122CC26CA4AC88B
:103C10004EC606CE13F707102E84AA843289B689C1
:103C20008395E5000DE37D777D17F98F2316F4006A
:103C30006244F240CE864A86B24942492685D24441
:103C400005616F30604689460146EF50303C83176E
:103C5000C4008315E400C1BF411122C42E848395A2
:103C6000E50006C6EF50903AFD57630DF500835707
:103C7000C400056728C8D98F2316F400B240224437
:103C8000410182808357C4007D777D17F98F231609
:103C9000F400B2402244410182808395E5006F30F8
:103CA000005B411122C406C6937735002A84A9E738
:103CB00018413706FFFE1306F6EFB307C700B786B5
:103CC00080801347F7FF93860608F98FF58F8DE7FD
:103CD00011051841B307C7001347F7FFF98FF58F98
:103CE00081EF11051841B307C7001347F7FFF98F9C
:103CF000F58FF9DF11A0050583470500EDFFEFD033
:103D00002FB62285B2402244410182803367B5003C
:103D1000FD530D8B79E7B7877F7F9387F7F71041C6
:103D20009441B372F6003363F600BE92B3E26200D0
:103D30006397720C6318D6065041D441B372F600F3
:103D40003363F600BE92B3E262006398720A631BAB
:103D5000D60410459445B372F6003363F600BE9264
:103D6000B3E262006391720A631ED6025045D445E5
:103D7000B372F6003363F600BE92B3E26200639A58
:103D800072086311D60210499449B372F600336386
:103D9000F600BE92B3E26200639372085105D1054A
:103DA000E30FD6F61317060193970601631CF7007D
:103DB0001357060193D706013305F7409375F50FA6
:103DC00091E982804183C1833305F7409375F50FF4
:103DD00091E182801377F70F93F7F70F3305F740E0
:103DE00082800346050083C605000505850563132B
:103DF000D60065FA3305D640828011059105E3129D
:103E0000D6FE014582802105A105E31CD6FC0145B3
:103E100082803105B105E316D6FC0145828041055B
:103E2000C105E310D6FC01458280937735002A87CF
:103E3000A1E3B7867F7F9386F6F7FD55110703262A
:103E4000C7FFB377D600B697D18FD58FE388B7FE7B
:103E50008346C7FFB307A7400346D7FF0345E7FFE5
:103E60008DC60DC23335A0003E9579158280F1D202
:103E700083470700050793763700F5FB098F130585
:103E8000F7FF82801385D7FF82801385C7FF82806A
:103E900051CEB367B5008D8BB9EF8D4763FDC70475
:103EA0001C4198416396E708711649C23703FFFE2B
:103EB0001303F3EF33876700B788808093C7F7FF5A
:103EC000F98F93880808B3F71701ADE30D4E05A0ED
:103ED00018419441B30767001348F7FFB3F7070190
:103EE000B3F717016316D704711629C2A1E31105B0
:103EF0009105E36FCEFC0347050083C605007D16E0
:103F00006393E60205C61DC3930715002A9629A0F0
:103F1000630EF600850719CB850503C7070083C626
:103F20000500E307D7FE3305D74082800145828034
:103F30000347050083C605007D16E386E6FCE5B76A
:103F400039714AD856D25AD05ECEB68AB28B06DEC6
:103F500022DC26DA4ED652D462CC66CA6AC86EC655
:103F60002E8B2A89AE8617D60E001306764B11A02B
:103F7000A286138416008347F4FF3307F600034735
:103F80000700218B75F71307D002638CE714130722
:103F9000B0026388E70ABE84014D638B0A0AC147F9
:103FA000638AFA14568C93DCFA41631C0D0AB70934
:103FB00000807D5A93C9F9FF6286E6865285CE85D8
:103FC000EF707A196286AA8DE6865285CE85EF70EB
:103FD0000A5F2A8E2E8601470145814525486543A3
:103FE000FD58938704FD6378F8009387F4FB636EB4
:103FF000F306938794FC63D25709630E170363603B
:10400000B6046394C500636CAE026309AE0AB3865E
:10401000AC0213DFF7410547B3858503B30EAC024D
:10402000AE96B335AC023385D701B337F500AE9603
:10403000B305DF00BE9505048344F4FF5DB77D57EB
:10404000DDBF83440400014D13842600E3990AF484
:10405000930700036386F40C294C814CA94AE308BA
:104060000DF4014AB709008081BF9387F4F96366B4
:10407000F300938794FAE3C257F9FD576306F704F8
:10408000630A0D003305A040B336A000B307B0406B
:10409000B385D74063850B0039EB23A06B01F25049
:1040A0006254D2544259B259225A925A025BF24B8C
:1040B000624CD24C424DB24D21618280E319B6F47C
:1040C0007D57E3CAFDF6A1B7930720022320F9002C
:1040D0005285CE85E3850BFC130BF4FF5285CE850C
:1040E0006DBF83440400054D138426007DB52A8AE4
:1040F000AE89DDB793070003639AF4008347040099
:104100001307800593F7F70D6385E700414C814C59
:1041100069BD83441400414C0904814CC14A71B506
:10412000834704001307800593F7F70DE383E7FE49
:10413000214C814CA14A95BD21B593874188B28617
:104140002E86AA858843EDBB93874188B2862E864A
:10415000AA858843F5B379714AD04ECE52CC56CA5F
:10416000328A368906D622D426D25AC85EC662C49E
:1041700066C26AC0AE89AA8AAE8617D60E0013063A
:10418000362A11A0A286138416008347F4FF330752
:10419000F60003470700218B75F71307D0026383EE
:1041A000E7141307B002638FE708BE84814C6302F3
:1041B000090AC147630EF912135DF9414A86EA867E
:1041C0007D55FD55EF70AA3F2A8C2E8B4A86EA86D4
:1041D0007D55FD55EF702A78CA8B2A83014701452A
:1041E00081452548E548938704FD6378F800938767
:1041F000F4FB63E1F808938794FC63D527096348CF
:1042000007006366BB00639965016377AC007D5767
:1042100005048344F4FFC1BF6305850BB306AD02FB
:1042200013DEF7410547B38575033386AB02B695B8
:10423000B3B6AB023385C700B337F500B695F29538
:10424000BE95F9B783440400814C13842600E31221
:1042500009F6930700036385F40C97D70E00938744
:1042600067E7154303AC070003AB4700A94B014DBB
:104270002949ADB79387F4F963E6F800938794FA78
:10428000E3CF27F763450704638A0C003305A0409A
:10429000B336A000B307B040B385D74063050A002A
:1042A0001DEF23203A01B250225492540259F24990
:1042B000624AD24A424BB24B224C924C024D45616B
:1042C0008280E39D65F57D57E344F3F481BF930756
:1042D000200223A0FA007D55FD55E3060AFC930950
:1042E000F4FFC1B783440400854C13842600C1B594
:1042F000930700036399F4068347040013078005BE
:1043000093F7F70D639FE702370B00108344140007
:104310003D4309047D5C7D1BC14B014D41497DBD81
:10432000834704001307800593F7F70DE38EE7FC3E
:10433000370B00201D437D5C7D1BA14B014D2149A6
:1043400071BD414681467D55FD55EF704A272A8C47
:104350002E8B414681467D55FD55EF70CA5FC14B9E
:104360002A83014DA5BD370B00103D437D5C7D1BAD
:10437000C14B014DA5B5C5B393874188B2862E8642
:10438000AA858843C9BB93874188B2862E86AA85B1
:104390008843D1B3FC5179715AC806D622D426D2AB
:1043A0004AD04ECE52CC56CA5EC662C4139727017D
:1043B000328B635B07061C462E892A8A832B0600F4
:1043C000FD5AADC303AC4B0003A40B0093592C0062
:1043D00063820904814421A01104638B99020C407B
:1043E0004A865285EF20907E8504E31755FF7D5560
:1043F000B250225423240B0023220B009254025962
:10440000F249624AD24A424BB24B224C4561828009
:1044100083278B00137CCCFFB38787412324FB00C9
:10442000A10BCDF30145E9B7EF300001D1B7184634
:1044300011C38DB7232206000145828069712320B4
:104440002113232E31112324811123261112232419
:10445000811223229112232C4111232A5111232846
:10446000611123267111232291112320A111EEDF66
:1044700036C6AA892E89328C01C51C5D638F0770F0
:104480000317C90093170701C1839396270163CFD0
:104490000600832649068967D98F79777D17758F3E
:1044A0002316F900C2072322E906C18313F7870008
:1044B000630F070E03270901630B070EE98B2947DA
:1044C0006383E710E177E40093C70783A6C082C443
:1044D00082C202C802CC02D002CE02C497DA0E0019
:1044E000938ACABF3ED22684E28C83C70C00638DB8
:1044F000070E13075002E386E71E668A21A0638039
:10450000E70E6A8A83471A00130D1A00EDFB330C7D
:104510009D41630B0C0C264796472320940162971C
:10452000850723228401BAC4BEC29D46210463DAF2
:10453000F600E30F07169000CA854E85A13D5DE9A0
:104540002684224783471A0062973AC4D1CF930C3E
:104550001D0003471D00A30D01027D5C014A814B34
:10456000130DA002850C9306A005930707FE63E6D2
:10457000F6168A07D6979C43D69782874E85EF50CA
:10458000C0205C413E853ECEEFF03F8A2AD02A8B88
:104590004E85EF50801F1C453ECCE31A0B1A03C713
:1045A0000C00C9B793EB0B0203C70C0065BFCA85AB
:1045B0004E85EF207033E31D053A8357C900294724
:1045C000E98BE391E7F08317E900E3CD07EEB2460C
:1045D0006286CA854E85EF00F03E2AC415A0330CD2
:1045E0009D41E3060CF605BFA64789C79000CA8522
:1045F0004E854D338357C90093F70704E39A073676
:104600008320C112032481122245832441120329ED
:1046100001128329C111032A8111832A4111032B1D
:104620000111832BC110032C8110832C4110032D09
:104630000110FE5D5561828097370E0093870780D9
:104640003EC893F70B02638E073CB2479386770010
:10465000E19A83AD060003AE4600938786003EC60E
:1046600093F61B0089C6B3E6CD01E395060C13FD56
:10467000FBBF0947A30D0102FD566304DC4CB3E602
:10468000CD01937BFDF76390067663150C56E31717
:104690000702937D1D00130B010FE39C0D04628D37
:1046A0006353BC016E8D8347B103B337F0003E9D69
:1046B0003DA8014A130607FD850C93172A0003C77E
:1046C000FCFF3E9A060A329AA547130607FDE3F55A
:1046D000C7FE930707FEE3FEF6E819D72306E108B5
:1046E000A30D0102054D854D130BC108014C93FF2D
:1046F0002B0063830F00090D164713F84B08A647DC
:1047000093061700368663160800330EAA41634EDF
:10471000C06D8345B1039306840085C11307B103BF
:10472000850718C0054758C0BEC4B2C21D476349BB
:10473000C768328736840506A106638C0F02781895
:10474000890718C0094758C0BEC4B2C21D47635488
:10475000C766638307789000CA854E8542CA1D39B3
:10476000E31A05E81647A6475248D408130617006F
:104770002684930500086305B84C330CBC41634B99
:104780008057EE97232064012322B401BEC4B2C235
:104790001D47635CC700638107129000CA854E8580
:1047A000D53EE31905E4A647A68693F84B00638639
:1047B00008003304AA41634B80106353AA016A8A3C
:1047C000224752973AC4639E075A82C2268431BB5D
:1047D00093F70B0213ED0B0163910740B247138768
:1047E0004700B247014E3AC683AD0700054759B5A9
:1047F00093EB0B0803C70C00B5B3B247A30D01023E
:1048000003AB070013874700E30E0B02FD573AC6C0
:104810006305FC76628681455A85EFE02F8F32472B
:10482000E3050512B30D6541014C95BD93F70B02ED
:1048300093E80B0163970736B24713874700B247E7
:10484000014E3AC683AD070085AE93F70B0213ED18
:104850000B0163980736B24713874700B2473AC641
:1048600083AD070013DEFD417287634B072A7D5736
:104870006309EC0033E7CD01937BFDF7630E07621C
:104880005E8D631C0E70A54763E9B77193870D03B6
:10489000A307F10EEA8B854D130BF10E09B53247D4
:1048A000A30D0102054D1C4311073AC62306F1086A
:1048B000854D130BC1081DBD82C293F84B00638365
:1048C000085C3304AA41635F805AA68641471646B6
:1048D000E358870897DE0E00938ECE98414C9D4D8D
:1048E000768B01A893052600A1063A864114635EE3
:1048F0008C02C1071307160023A0660123A28601BC
:10490000BEC4BAC2E3D0EDFE638807329000CA8508
:104910004E85EFF03FA8E31F05CC16464114A6478D
:10492000A68693051600E3468CFCDA8EA29723A098
:10493000D601C0C2BEC4AEC21D47E350B7E8638310
:1049400007549000CA854E85EFF0DFA4E31405CA32
:10495000A647A5B58347B10303C70C00E39407C07E
:1049600093070002A30DF102F5BE9307B002A30D59
:10497000F10203C70C00FDB6B24703C70C0003AA3F
:10498000070091073EC6E35F0ABC330A404193EB40
:104990004B00C9BE93EB1B0003C70C00E1B603C775
:1049A0000C0093871C006300A77FBE8C130607FDD5
:1049B000A547014CE3EBC7BA850C93172C0003C73E
:1049C000FCFF3E9C060C329CA547130607FDE3F551
:1049D000C7FE61BE03C70C0093EB4B0061B693F7B3
:1049E0000B02639B071EB24793F60B011387470028
:1049F0009C436398067A93F60B0463810666939D45
:104A000007013AC693DD0D01014E5E8D05479DB14C
:104A100097D70E00938747833EC893F70B02E39620
:104A200007C2324693F60B011C42110632C663914F
:104A3000064A93F60B0463890648939D070193DDAC
:104A40000D01014E31B9B2471257014E83AD070037
:104A500091073EC697C70E009387077F231EE1028A
:104A600013ED2B003EC8094731B193F70B02639950
:104A70000712B24793F60B01138747009C436395D7
:104A8000067293F60B046386065E939D070193DD21
:104A90000D01014EDE883AC605A2B24693F70B021D
:104AA000138746006392074C93F70B0163950758F1
:104AB00093F70B046391076493F80B20638D0856FA
:104AC000B2473AC622479C432380E70039BC03C75C
:104AD0000C009307C0066309F75493EB0B0159B41C
:104AE00003C70C00930780066309F75293EB0B048E
:104AF00095BC93F70B02E9E7324793F70B011107D7
:104B00006397076A93F70B04638E0756B2473AC65A
:104B10005E8D839D070013DEFD417287E35907D444
:104B2000B307B0413337F000330EC041330EEE40CF
:104B30001307D002A30DE102FD56BE8D0547E31019
:104B4000DCB48546E30FD7D28946630CD70A9419A3
:104B500011A0DA869317DE0113F77D0093DD3D0087
:104B600013070703B3EDB701135E3E00A38FE6FE04
:104B7000B3E7CD01138BF6FFE9FF93771D00C5CB9B
:104B8000930700036305F70AF916A30FFBFE9C19B0
:104B9000B38DD740EA8B368B19B6EFC0BFC9CDB005
:104BA000DE88B24713877700619B832D0700032EB1
:104BB0004700930787003EC613FDF8BF01475DBC61
:104BC0005E8DB2479D07E19BD8439386870036C62A
:104BD00083AD07003A8E51B95E8DB24713877700D7
:104BE000619B93078700832D0700032E47003EC675
:104BF000054749B485466303D75489465E8DE3185B
:104C0000D7F4C246130B010F93F7FD00B69783C785
:104C100007001317CE0193DD4D007D1BB36DB70167
:104C2000135E4E002300FB00B3E7CD01F1FF9C199A
:104C3000B38D6741EA8BA5B485450146A6867DB153
:104C4000330EAA41E35BC0B3C14563D7C55397CECA
:104C50000E00938E2E625ACA52D4414F9D4F728AD3
:104C6000768B01A89305270021043687411A6350EB
:104C70004F05C10793061700232064012322E40196
:104C8000BEC4B6C2E3D0DFFE638507109000CA85BC
:104C90004E85EFF02FF0E31F05941647414F411A60
:104CA000A6472684930517009D4FE3444FFD528E7F
:104CB000DA8E225A524B13058400F2972320D40136
:104CC0002322C401BEC4AEC21D47635EB724638EF7
:104CD000073C9000CA854E85EFF0CFEBE31C0590B2
:104CE0001647330CBC41A647D40813061700268488
:104CF000E35980A9C14563D4853B97CE0E00938EBE
:104D00006E5752CA414E1D4F768A01A813062700DE
:104D100021043687411C635F8E03C1079306170089
:104D2000232044012322C401BEC4B6C2E350DFFEE7
:104D3000A9C79000CA854E85EFF0CFE5E31C058A30
:104D40001647414E411CA6472684130617001D4FE7
:104D5000E3458EFDD28E524A93058400E2972320CC
:104D6000D40123228401BEC4B2C21D476343C712CB
:104D70000506938685002E8429B4054601472684BE
:104D800051BF9000CA854E85EFF0CFE0E30F05A23A
:104D900095B0854501472684D1BD63940716034726
:104DA000B1036311073463810F147C18BEC68947B1
:104DB000BEC80546D408328736840506A10655BA12
:104DC000FDD39000CA854E8542D47ECAEFF08FDCB9
:104DD000E31205821647A647D40813061700268457
:104DE0002258D24F99BA5E8DA9BB41466354C6374B
:104DF00097CE0E00938E0E47228652D6C1429D4317
:104E00007ECA42D47284768A11A8930527002106AF
:104E10003687411463DF820293061700C1072320FF
:104E2000460123225600BEC4B6C2E3D0D3FEB9C7A2
:104E30009000CA854E85EFF0EFD5631D05FA164741
:104E4000C1424114A6472686930517009D43E3C53A
:104E500082FCD28ED24F2258325A228E3284F2975E
:104E60002320D4012322C401BEC4AEC21D47E346A1
:104E7000B7F22104138615002E8761B801478545D6
:104E8000268641BF6353AA016A8AA247D2973EC4CD
:104E90002DBA638B070E9000CA854E85EFF08FCF39
:104EA000631A05F41646A647D40805062684D1B829
:104EB00082C226846FF0EFE863120C28014C814D0A
:104EC000130B010F6FF0AFFD93F60B2063930626D3
:104ED000BE8D014E6FF0CFF8D408054601472684F9
:104EE00049B8668D6FF0AFE60147D40805462684C1
:104EF00049B093070003A307F10E130BF10E6FF0F7
:104F00000FFA9000CA854E8542D47ECAEFF08FC852
:104F1000631205EE1647A64726841306170022588B
:104F2000D24F6FF00FFF13861500930685002E8772
:104F30002A84A1B09306000393EB2B00A30EE10299
:104F4000230ED10213FDFBBF09476FF0AFF2E2471A
:104F500003C70C00638807E083C70700638407E08A
:104F600093EB0B406FF00FE022469C423AC69356FB
:104F7000F64190C3D4C36FF04FD75A85EFE0FFEAF4
:104F8000AA8D014C6FF0AFF10547EE87DAC6EEC887
:104F9000EEC4BAC2D4086FF05F81130B010F937790
:104FA0000D4022CA52D44ED6814BDA893E84668B9C
:104FB000728ACA8C624919A8294681466E85D285B3
:104FC000EF60EA5F630F0A16AA8D2E8A2946814692
:104FD0006E85D285EF603A1813050503A38FA9FEED
:104FE000850BFD1971D803470900E31777FD930777
:104FF000F00FE383FBFC63100A0CA54763EDB70BCE
:105000004ACC9C196689DA8C4E8B5244225AB2598A
:10501000B38D6741EA8B6FF08FE803C71C0093EBF9
:105020000B20850C6FF00FD403C71C0093EB0B0211
:10503000850C6FF02FD3B2479C433AC6224798C3E2
:105040006FF0AFCA9947E28D63EC87096E8D3AC65F
:1050500017CB0E00130B8B206FF04FE993F60B204C
:10506000F1C23AC693FDF70F014E5E8D05476FF012
:105070006FE093F60B20D5C293FDF70F014EDE884B
:105080003AC61DBE93F70B20BDCFB2475E8D3AC620
:10509000838D070013DEFD4172876FF00FFDB6852B
:1050A00097CE0E00938E0E1D55B9D40805460147C4
:1050B00026846FF08FEC8257F245814BB389F9401B
:1050C0003E864E85EF5040330347190029468146FE
:1050D0003337E0006E85D2853A99EF604A4EEDB5E0
:1050E000994DADB79307B103BEC68547BEC8054607
:1050F000D4086FF00FE4B2473AC622479C4323908E
:10510000E7006FF08FBEB2475E8D3AC683AD0700F1
:1051100013DEFD4172876FF04FF5BE8D014EDE88C4
:105120003AC659BC3AC6BE8D014E5E8D05476FF03A
:105130006FD493FDF70F014E6FF08FD25E8D6FF03D
:10514000EFF4A547E3E2B7E965BDE28D3AC6014C4D
:105150006FF0EFD4B68597CE0E00938EAE1001B3EC
:105160009305160097CE0E00938ECE0F6FF00FFCB6
:10517000FD573EC46FF0CFC83685B28597CE0E007E
:10518000938E4E0F1DBE3247032C07009306470037
:1051900063530C007D5C03C71C0036C6BE8C6FF0E9
:1051A0006FBC5E8D6FF0EFE3DE886FF04FE95E8DD0
:1051B0006FF0CFEA93874188B2862E86AA8588430E
:1051C0006FF0CFA783D7C50003AE450603D3E50034
:1051D00083A8C50103A84502130101B8F59B130775
:1051E0000040232C8146231AF1002E849C182C00A9
:1051F000232A914623282147232E11462A89F2D6B5
:10520000231B610046D242D63EC43ECC3AC83ACEB9
:1052100002D0EFF0AFA2AA8463590502835741017F
:1052200093F7070499C78357C40093E7070423162D
:10523000F4008320C14703248147268503290147C1
:10524000832441471301014882802C004A85EFC026
:105250004FA669D5FD54D9B741712326111E2324C9
:10526000811E2324811D2EC2328C36C62322911E1C
:105270002320211F232E311D232C411D232A511DA4
:105280002328611D2326711D2322911D2320A11D8A
:10529000232EB11B2A842ACEEF40204F1C413E858D
:1052A0003ED8EFE09FB82AD482D982DB82DD82DF4C
:1052B00001C41C5CE383071A12460317C600931748
:1052C0000701C1839396270163CD06007452896755
:1052D000D98F79777D17758F2316F600C20778D29C
:1052E000C18313F78700630C070E1247184B65CB79
:1052F000E98B29476383E710E28C03C70C007C022B
:10530000BED382D782D502CC02D602DC02DE82C0B6
:1053100082C202C4C14B3E8D724A6307072E9306B8
:1053200050026314D7006F10A008668421A0638325
:10533000D70E4A848347140013091400EDFBB3040D
:1053400099416383042CBE562E5723209D01A696B7
:10535000050723229D00B6D7BAD59D46210D63CF00
:10536000E60AA24703471400A6973EC4630E072827
:105370007D5393041900034E1900A303010C01444B
:105380000149A549130BA0021A8C8504F28A130760
:10539000A00593870AFE6362F71A97C60E009386EC
:1053A00066EE8A07B6979C43B69782875285EF4090
:1053B000C03D5C413E85BEC2EFE03FA7AAC0AA8ABD
:1053C0005285EF40803C1C453EDEE3960A6E03CEDC
:1053D000040065BF1369090203CE04007DB792453E
:1053E0007245EF10705019C16F1090119247294704
:1053F00083D7C700E98BE391E7F092478397E700F3
:10540000E3CC07EEB246924572456286EF109040BB
:105410002AC499A0B3049941A1DC35B79245D011B3
:105420005285EFF0CF800DE1130DC1101DBF9245E5
:10543000D0115285EFE0BFFF6301053EC24789C727
:105440007245BE85EFC04FE5924783D7C70093F7FB
:10545000070499C36F10D00A8320C11E0324811E44
:1054600022458324411E0329011E8329C11D032ACD
:10547000811D832A411D032B011D832BC11C032C7D
:10548000811C832C411C032D011C832DC11B7D61BC
:10549000828097C70E00938727DB3ED69377090259
:1054A0006283E1C3B2479D07E19B03AC070083AD74
:1054B0004700138787003AC69377190089C7B367F7
:1054C000BC01E393075C9379F9BF8947A303010CFF
:1054D0007D576306E3643367BC0113F9F9F7E313FF
:1054E00007346319037E6394071A13FB1900930CA6
:1054F000011BE31E0B54DA8963536B009A8903473F
:10550000710C02C802D202D002CA630D07248509B9
:1055100091AC014493860AFD85049317240083CA45
:10552000F4FFA29786073384F60093860AFDE3F51D
:10553000D9FE93870AFEE372F7E663870A0C230617
:105540005115A303010C8549054B930CC11431A4DB
:1055500097270E009387878E3ED693770902628342
:10556000B1F3324793770901032C070011073AC6BC
:10557000E39B074E93770904E383074E420C135CC9
:105580000C01814D15BF03CE040013694900F5BB22
:1055900083CA04009387140063946A016F10502239
:1055A00093860AFDBE84014CE3E5D9DE850493179A
:1055B0002C0083CAF4FFE2978607338CD7009386CA
:1055C0000AFDE3F5D9FEF1B3B246937709021387DA
:1055D0004600E398074C9377090199C36F00507810
:1055E0009377090499C36F10202413790920E309E4
:1055F0000976B2473AC622479C43A68C2380E7002F
:1056000003C70C00E31D07D0BE57E38F07E29245A6
:105610007245D011EFE0BFE105BD03CE0400930752
:10562000C006E300FE521369090185B303CE0400EE
:1056300093078006E300FE5013690904B9B393771A
:105640000902628363900762B247137709019107E9
:1056500019C36F10901A1377090419E36F0030799A
:105660003247CA893EC6031C0700935DFC416E8722
:1056700063470748FD576300F364B367BC0113F940
:10568000F9F763990762630403006F102045014333
:10569000014B930C011B85B51369090803CE040067
:1056A000EDB1937709026283936909016399075CFD
:1056B000B24791073247814D3EC6032C070085470C
:1056C00031B5B247A303010C628383AC0700138C8E
:1056D0004700E38F0C467D57E305E3701A8681454A
:1056E00066851AC6EFD08FA22AC8324319E16F101F
:1056F000E058C247338B97410347710C9349FBFF36
:1057000093D9F94162C602C802D202D002CAB37963
:105710003B010143E31D07DEB1A0937709026283D9
:105720001369090163990756B24791073247814DC2
:105730003EC6032C070095AB1369890003CE040015
:10574000A9B13247A303010C85491C4311073AC68E
:105750002306F114054B930CC11402C8014302D275
:1057600002D002CA937F290063830F008909937DC9
:1057700049083E5763960D0033083441E346000B59
:105780008346710C8DC2AE561306710C2320CD00DA
:105790000507054685062322CD00BAD7B6D51D4696
:1057A000210D6347D60863810F02AE56B001232056
:1057B000CD000907094685062322CD00BAD7B6D504
:1057C0001D46210DE34AD610930600086383DD626F
:1057D000330C63416344806D93760910639F0652D6
:1057E000AE575A9723209D01850723226D01BAD712
:1057F000BED59D46210D63C7F67613794900630631
:1058000009003309344163442005635334014E8455
:10581000A247A2973EC4E31C07C0C24782D589C7EE
:10582000C2455285EFC04FA7130DC110A68CC9BB4E
:105830009245D01152859AC47EDAEFE05FBFE31F34
:1058400005BE3E57130DC1102643D25FA9BFAE5708
:1058500017CC0E00130CCCBA63D12B051D4B924A0A
:1058600021A0411963DB2B034107850723208D010C
:1058700023227D01BAD7BED5210DE354FBFED01102
:10588000D6855285EFE0BFBAE31A05BA41193E57F3
:10589000AE57130DC110E3C92BFD4A97850723208E
:1058A0008D0123222D01BAD7BED59D46E3DFF6F444
:1058B0009245D0115285EFE09FB7E31105B83E57EE
:1058C000A9B7137789006283E312071AB247081950
:1058D00062C89D07E19B8C43D043A1073EC6EF8081
:1058E0006A5C4A574243BAD95A57BADB6A57BADD9B
:1058F0007A57BADF88191AC8EF30F064AAC7094787
:105900004243E305E5400547E307E5521307100668
:105910006394EA006F10404713071004E38BEA76A4
:1059200093F7FAFD7D57BEC46314E3006F10E04D9A
:10593000130770046394E7006F10404C7E5BCACA83
:10594000136709104E5FDE5DEE5E63540B006F104F
:10595000602182CE3A8902C8264793076004631407
:10596000F7006F104026930750046314F7006F1080
:10597000003E130C010B9C09F8019A861308C10D17
:105980000946E28552851AD07AD97ACC76DD76CA74
:105990006EDB5ADFEF201076A64713077004AA8C3F
:1059A000D24E624F02536384E7006F106065D647A2
:1059B00013F7170019C36F10E0387E47B3079741FC
:1059C0003ECCBE47130770043ECAA6476394E70067
:1059D0006F100013A647130760046394E7006F106D
:1059E0006030D2479305100493F6FA0F1387F7FF40
:1059F000A647BAC701466396B700BD0693F6F60FF1
:105A00000546230AD10C9306B00263570700D2471C
:105A100005479306D0021D8FA30AD10CA54663C487
:105A2000E6006F1080441308310E428629451303A7
:105A3000300619A02E863687B367A7029305F6FFB6
:105A400093870703A30FF6FEB346A702E344E3FEE2
:105A5000138706031377F70F9306E6FFA38FE5FE80
:105A600063E406016F10C0579305610D19A003C7C9
:105A7000060085058506A38FE5FEE39A06FF13075A
:105A8000510E9307610D118F3E97D409B307D7408C
:105A90003EDCE247E2560547338BD7006344F7000C
:105AA0006F10C049A2573E9BD6479349FBFF93D93D
:105AB000F94113F9F7BF13690910B3793B0102D219
:105AC00002D002CAF64799E36F10C0081307D0024C
:105AD000A303E10C0143850971B193770902628345
:105AE0009369090163910718B247910732473EC68F
:105AF000032C0700935DFC416E87E35D07B6330C12
:105B00008041B3378001B30DB041B38DFD409307A1
:105B1000D002A303F10C7D578547E31EE39A0547A6
:105B2000638BE7180947638EE71A141B11A0E686FA
:105B30009397DD0113777C00135C3C001307070388
:105B400033EC870193DD3D00A38FE6FEB367BC0114
:105B5000938CF6FFE9FF13F61900630A061A130681
:105B600000036306C71AF9161C1BA38FCCFE338BE8
:105B7000D7404E89B68C41B23247E17793C707834D
:105B80002314F10C930747003EC697B70E00938786
:105B9000A76B62833ED6032C0700814D93692900D1
:105BA0008947930A80071DB28347710C03CE040016
:105BB000639D07FC93070002A303F10C6FF0EFFC59
:105BC0009307B002A303F10C03CE04006FF0EFFBC8
:105BD000B24703CE0400804391073EC6635704FAE0
:105BE00033048040136949006FF02FFA13691900DC
:105BF00003CE04006FF06FF9937709026283C1EF5F
:105C0000B246137709019387460003AC0600E31FF1
:105C100007B013770904E30A071E420C135C0C015A
:105C2000814D3EC659A0937709026283A1EBB2462B
:105C3000137709019387460003AC060019C36F1060
:105C4000C03913770904E30C071C420C3EC6135CF1
:105C50000C01814DCA89854795B87245EFB09FBD4B
:105C60006FF08FE5CA89B2479D07E19BD8439386C1
:105C7000870036C603AC0700BA8DDDBACA89B247C1
:105C80009D07E19B1387870003AC070083AD4700A6
:105C90003AC6854725B8B2479D07E19B03AC07008C
:105CA00083AD4700138787003AC69379F9BF8147D0
:105CB0006FF0DF81CA8963920D7AA54763EF877918
:105CC000130C0C03A307811B4E89054B930CF11A8F
:105CD0006FF07F820547E383E7600947CA89E3964F
:105CE000E7E4B256930C011B9377FC00B69783C789
:105CF00007001397CD01135C4C00FD1C336C87012A
:105D000093DD4D002380FC00B367BC01F1FF1C1B39
:105D1000338B97414E896FF00FFE9306500663DE7A
:105D20005625CE560C11081936D9DE563ADA02D16C
:105D300036DBEE5602D302D536DDFE5602D736DF0D
:105D4000EF501A7E52576317053AAE5797660E000A
:105D50009386069C05072320DD00850785462322C0
:105D6000DD00BAD7BED51D47210D634CF776BE477F
:105D7000624763C7E7009377190099E33E57B5BCC4
:105D8000C257A2563E572320FD00AE573697232216
:105D9000DD008507BAD7BED59D46210D63C1F658F3
:105DA000E247138BF7FFE35A60A5AE5763D66B75D6
:105DB0001D4C924A21A0411B63D06B75410785079A
:105DC00097B60E009386C6642320DD0023227D0152
:105DD000BAD7BED5210DE350FCFED011D685528531
:105DE000EFE0EFE4631C05E43E57AE57130DC1101E
:105DF000D9B7330C3441E35D809DAE5663D38B0736
:105E000026DAEA87E284668D4E8CDA8CA2899D4D73
:105E100012441A8B21A0C11463DD9B024107850641
:105E200017B60E001306C65E90C323A27701BAD739
:105E3000B6D5A107E3D1DDFED011A2855285EFE0F2
:105E40000FDF631D05DEC1143E57AE567C02E3C76B
:105E50009BFC4E84E289268CD2545A83668BEA8C52
:105E60003E8D6297850697B70E009387675A232069
:105E7000FD0023228D01BAD7B6D51D46210DE35969
:105E8000D6949245D01152851ADAEFE04FDA6317B3
:105E900005DA3E57130DC11052531DBAAE5663DFDB
:105EA0008B0526DA9D4DE2845A8C4E8BA2891244D2
:105EB00021A0C11463DF9B024107850697B70E003E
:105EC000938707552320FD0023227D01BAD7B6D53D
:105ED000210DE3D0DDFED011A2855285EFE02FD554
:105EE000631E05D4C1143E57AE56130DC110E3C551
:105EF0009BFC4E84DA89628B268CD254629785068D
:105F000097B70E009387C7502320FD0023228D01F1
:105F1000BAD7B6D51D46210DE350D68C9245D01187
:105F20005285EFE0CFD0631B05D03E57130DC11053
:105F300065B093751900B1ED2322DD00BAD7DAD52B
:105F40009D4763CE673B930A2600410DE256DC096C
:105F50002320FC0036972322DC00BAD7D6D59D47F4
:105F6000E3DD57899245D0115285EFE04FCC63179E
:105F700005CC3E57130DC11049B02E56E247854659
:105F800023209D010507130B1600130C8D00E3D28F
:105F9000F6FA85462322DD00BAD7DAD59D4663CCD2
:105FA0006641A257C256050B3E972320DC002322F0
:105FB000FC00BAD7DAD59D46210C63CA6641CE569D
:105FC000E24713081B0036D9DE560C11081936DBE0
:105FD000EE563AD2C28A36DDFE5642D002D136DFC4
:105FE0009386F7FF36CA02D302D502D7EF505A5331
:105FF000130D8C00D2460258125763030520938775
:106000001C0036972320FC002322DC00BAD7D6D50B
:106010009D4763C6572F93070C01930A2B006A8C88
:106020003E8D2DB7CA89E5BCAE5617BC0E00130CC9
:106030002C3D63D70B07A6C4CAC6EA876289668D62
:106040004E8CDA8CA2899D427EDA92441A8B42846D
:1060500021A0411463DB8B024107850623A02701A1
:1060600023A27701BAD7B6D5A107E3D4D2FED011C7
:10607000A6855285EFE0AFBB631205BC41143E57C5
:10608000AE567C029D42E3C98BFC2288D25F4E84CF
:10609000A644E2894A8C36495A83668BEA8C3E8D47
:1060A0004297850623208D0123220D01BAD7B6D54C
:1060B0001D46210D6356D6EC9245D01152859AC4E7
:1060C0007EDAEFE0CFB6631B05B63E57130DC11065
:1060D0002643D25F6FF0CFEA9245D01152851ADA8B
:1060E000EFE0EFB4631C05B43E57130DC1105253DB
:1060F0006FF08FED3E466359C02EE247D2463E8B8D
:1061000063C8F61C635F6001AE565A9723209D0159
:10611000850623226D01BAD7B6D51D46210D634CE5
:10612000D66C9346FBFFD247FD86337BDB00338B77
:106130006741634B6023D24793760940B38AFC00E2
:10614000639D06543E4BE2476346FB00937619007D
:106150006381066CC256A2571D462320DD00AE5651
:106160003E972322FD008506BAD7B6D5210DE34917
:10617000D62EE246B387DC00338B6641B3875741A6
:106180005A8C63D367013E8C635F8001AE57629780
:1061900023205D01850723228D01BAD7BED59D46F8
:1061A000210DE3C0F6329347FCFFFD87337CFC00F2
:1061B000330B8B41635360E5AE5763DF6B331D4C8C
:1061C000924A21A0411B63D96B334107850797B6DB
:1061D0000E009386E6232320DD0023227D01BAD71B
:1061E000BED5210DE350FCFED011D6855285EFE0DF
:1061F0000FA4631505A43E57AE57130DC110D9B7B0
:10620000E356D0D4E3DBDB5A9D4A368D924C428B69
:1062100029A0411D63D2AB0D050B410797B70E00B6
:106220009387071F2320FC0023227C01BAD7DAD5ED
:10623000210CE3D06AFFD011E6855285EFE02F9F55
:10624000631E059E3E572E5B130CC110D9B79307F2
:106250000003A307F11A930CF11A6FF0CFA99377FB
:10626000092063900760814D6FF00FA5B2479843F6
:1062700091073EC60C43504314475847AED9B2DB92
:10628000B6DDBADF6FF00FE793070003136929004B
:106290002304F10CA304510D9379F9BF89476FF0E2
:1062A000EFA222469C423AC69356F64190C3D4C30D
:1062B000A68C6FF0EFB4F25703CE04006387078C0F
:1062C00083C707006383078C136909406FF0EF8B66
:1062D000368BE34B60E3B1B5EA86930A1B00930764
:1062E0008C00369717B60E00130686122322DC00A8
:1062F0002320CC00BAD7D6D59D4663D6564D9245BD
:10630000D0115285EFE0AF92631A05922E563E5798
:10631000130D4111930A1600130CC11005B99245D3
:10632000D0115285EFE0AF90631A05903E57130DE0
:10633000C110BDB403CE14001369092085046FF0A9
:10634000CF8403CE14001369090285046FF0EF8334
:1063500099471A8B63ED674ADA8962C697BC0E00CB
:10636000938CCCEF6FF06FBFAE5663DC6B2F9D4A02
:10637000124C21A0411B63D66B2F4107850697B7AE
:106380000E009387E7082320FD0023227D01BAD762
:10639000B6D5210DE3D0DAFED011E2855285EFE0CB
:1063A0000F89631D05883E57AE56130DC110D9B72E
:1063B00066896FE0FFFB9245D0115285EFE02F8791
:1063C000631E05863E572E5B130CC110D9BE924545
:1063D000D0115285EFE0AF8519C16FF02F863E577F
:1063E0002E5B130CC110E1BEAE5697550E0093857F
:1063F00025322320BD000507854585062322BD00E3
:10640000BAD7B6D59D45210D63C5D53C6312061696
:10641000E24793761900DD8E638106BEC256A2570D
:106420001D462320DD00AE563E972322FD00850643
:10643000BAD7B6D593088D00634DD642E24785069C
:1064400023A098013E9723A2F800BAD7B6D59D475E
:10645000138D880063D3D7BA31B6930C011B8147E3
:1064600013F9094026C84ECA130BF00FE6891AD05B
:10647000D28CF2546E8AEA8D228D3E8419A8294668
:1064800081466285D285EF508A13630A0A722A8C8C
:106490002E8A294681466285D285EF50CA4B130564
:1064A0000503A38FA9FE0504FD19E30A09FC83C6B1
:1064B0000400E316D4FCE30464FD631D0A6CA547E5
:1064C00063EA876D668ACE8CD2491C1B22CC26DEFD
:1064D0006A840253C2446E8D338B97414E896FF0AC
:1064E0008F819245D0115285EFD07FF419C16FE0B2
:1064F000FFF4130DC110A5B897B60E00938646F1B0
:106500005A9785072320DD006FF02FAECE570C1170
:1065100008193ED9DE5702D102D33EDBEE5702D531
:1065200002D73EDDFE573EDFEF50BA1B63430572D4
:106530000347710C9306700497BC0E00938C4CEBD0
:1065400063C6562B02C802D202D002CA1379F9F7E9
:106550008D490D4B014319C36FE07FFB6FF08FA096
:10656000B247A68C9C433AC6224798C36FF04F8926
:10657000C256A2579D452320DD00AE563E972322EA
:10658000FD008506BAD7B6D593088D0063C3D52E16
:10659000E35606EAC155330BC0406357B6761D4C2F
:1065A000924A21A0411B63D16B774107850697B7BB
:1065B0000E009387E7E523A0F80023A27801BAD75D
:1065C000B6D5A108E350DCFED011D6855285EFD0B8
:1065D0001FE619C16FE09FE63E57AE569308C11003
:1065E000D1B76685EFD07F842A8B6FF0EF90137759
:1065F0000920630E07243247CA893EC6030C0700F0
:10660000935DFC416E876FF0AF8613770920630CB2
:106610000722137CFC0F814D3EC66FF00FE9137704
:106620000920630C07203EC6137CFC0F814DCA89EC
:1066300085476FE0BFE9FE5763DA07229307D00270
:10664000A303F10C1307D0029306700497BC0E004D
:10665000938C8CDAE3D856EF97BC0E00938C0CDA4F
:10666000D5B55A97850697B70E00938767DA23202A
:10667000FD0023226D01BAD7B6D51D46210DE35C7E
:10668000D6AA9245D0115285EFD07FDA19C16FE0BA
:10669000FFDA3E57130DC11079BCE247025C26CAEF
:1066A0004ADAA2C492544ED066D2B38DFC001D4B80
:1066B00006497254EA869249964C63050C06ADE48D
:1066C0007D147D1CAE574A9723A09601850723A20F
:1066D0002601BAD7BED5A106634FFB0A03460400C4
:1066E000B3855D41328D63D3C5002E8D6350A00309
:1066F0002E566A9723A05601050623A2A601BAD7F3
:10670000B2D56345CB0A03460400A1069345FDFFBD
:10671000FD85B377BD00330DF6406349A001B29A01
:10672000E31F0CF8638F043AFD1469BF2E5663C64D
:10673000AB0181A0411D63DEAB034107050697B79E
:106740000E009387E7CC9CC223A27601BAD7B2D5BC
:10675000A106E351CBFED011CE855285EFD03FCDBF
:1067600019C16FE0BFCD411D3E572E567402E3C6DE
:10677000ABFD6A97050697B70E00938767C99CC261
:1067800023A2A601BAD7B2D56348CB3E0346040084
:10679000A106B29A71B7D011CE855285EFD03FC90C
:1067A00019C16FE0BFC93E5774020DBFD011CE852D
:1067B0005285EFD0DFC719C16FE05FC80346040000
:1067C0003E577402A1B7850A138D87003E8C6FF087
:1067D000EFF79245D0115285EFD07FC519C16FE018
:1067E000FFC53E463E57130DC1100DB197BC0E00BC
:1067F000938C4CC081BB9245D0115285EFD03FC3E2
:1068000019C16FE0BFC33E57130DC11019BA194B20
:10681000A1B6E246B387DC00338B6641338C574127
:10682000E3538B995A8C41B2B2473AC622479C43F4
:10683000A68C2390E7006FE0BFDC3EC6814DCA897D
:1068400085476FE0BFC8814D3EC66FF00FC6324727
:10685000CA893EC6032C0700935DFC416E876FE03A
:106860003FE1137CFC0F814D6FE01FC50347710CA6
:10687000E1BB9245D0115285EFD07FBB19C16FE0CB
:10688000FFBB3E463E57AE569308C110E35806BACA
:1068900011B3930700032304F10C93078005A304AD
:1068A000F10C9367290013073006BECA02C8930C87
:1068B000C1146342674E7E5B93F7FAFDBEC482CE7D
:1068C000136929104E5FDE5DEE5E634F0B281307E0
:1068D00010066388EA5C130710046384EA006FF013
:1068E000AF87130C010B62851ADA7AD976DD5ADF8D
:1068F0006EDBEF706A75F001EF10EA322E86AA8522
:106900006285EF702A5A4A571C099309010A3AC94D
:106910005A571001BE853ACB6A574E853E8B3ACD09
:106920007A57B2C6CECC3ACF3707FC3F3AC702C13E
:1069300002C302C5EF50AA6C0A579A562A58BA5E8B
:10694000CE8562853AD93AD236DB36D042DD42CCAA
:1069500076DF76CA02D102D302D502D7EF504A3C85
:10696000D24E624882561257525319E10546B2C7B9
:1069700097070E009387874C3EDA930DF3FF66CAA4
:10698000A6D0D6D2A2D6EADAD2DCE6DECAD4EE8C23
:106990009AD83A8DB68D428AF68ADA84664435A052
:1069A000A285628532D27AD07ECC7EDB7ADD32DF80
:1069B0004AD902D102D302D502D7EF506A36FD1C64
:1069C000E24F025F125641C55ACAB70703402686F6
:1069D000A28562853ECF6AD16ED352D556D702C901
:1069E00002CB02CDEF50AA616285EF70CA28AA855A
:1069F000AA8962857A5BCA5A5A5A6A59EF708A35EF
:106A00004A573646A6853AC15A5722855ACF3AC3C5
:106A10006A5756C952CB3AC57A574ACD3AC7EF6042
:106A2000EA27D2570A599A5F33873701D24703477B
:106A300007002A5F3A56138B1700A30FEBFEE6C838
:106A4000FD574A8DFE8D7A8AB28AE39BFCF4465349
:106A5000E645CA82B70DFE3F62851ACC865416D928
:106A600096D07EDBFEC67ADD7AD232DF32D002D11A
:106A700002D302D56ED7EF502A35965A3654565D5A
:106A8000665AF65C265962436343A0328652B64F7B
:106A9000125F0256E645628516D97EDB7ADD32DF6B
:106AA00002D102D302D56ED7EF508A27624309E59F
:106AB00093F91900639D092EC647930600031387B7
:106AC00017005A9763C70700050BA30FDBFEE31DF2
:106AD00067FFB3079B413ECC6FE0BFEECA896FF002
